:020000040000FA
:100000000C9462000C948A000C948A000C948A0070
:100010000C948A000C948A000C948A000C948A0038
:100020000C948A000C948A000C948A000C94AB0304
:100030000C948A000C948A000C948A000C948A0018
:100040000C9461030C948A000C942F030C94090304
:100050000C948A000C948A000C948A000C948A00F8
:100060000C948A000C948A000000000025002800EF
:100070002B0000000000240027002A0000000000E0
:1000800023002600290004040404040404040202DA
:100090000202020203030303030301020408102007
:1000A0004080010204081020010204081020000012
:1000B0000008000201000003040700000000000027
:1000C0000000820411241FBECFEFD8E0DEBFCDBFF9
:1000D00011E0A0E0B1E0E8EFFDE002C005900D9274
:1000E000A237B107D9F722E0A2E7B1E001C01D9223
:1000F000A635B207E1F710E0C2E6D0E004C02197D0
:10010000FE010E94F406C136D107C9F70E94CE0451
:100110000C94FA060C940000AF92BF92CF92DF923B
:10012000EF92FF920F931F93CF93DF936C017B01AC
:100130008B01040F151FEB015E01AE18BF08C0173D
:10014000D10759F06991D601ED91FC910190F081B0
:10015000E02DC6010995892B79F7C501DF91CF9173
:100160001F910F91FF90EF90DF90CF90BF90AF90D5
:100170000895FC01538D448D252F30E0842F90E0AD
:10018000821B930B541710F0CF9608950197089592
:10019000FC01918D828D981761F0A28DAE0FBF2F5B
:1001A000B11D5D968C91928D9F5F9F73928F90E0B1
:1001B00008958FEF9FEF0895FC01918D828D981720
:1001C00031F0828DE80FF11D858D90E008958FEF5D
:1001D0009FEF0895FC01918D228D892F90E0805C26
:1001E0009F4F821B91098F739927089581EA91E0AF
:1001F0000E94EA0021E0892B09F420E0822F089573
:1002000080E090E0892B29F00E94F60081110C9487
:1002100000000895FC01A48DA80FB92FB11DA35AA9
:10022000BF4F2C91848D90E001968F739927848F16
:10023000A689B7892C93A089B1898C918370806439
:100240008C93938D848D981306C00288F389E02DDA
:1002500080818F7D80830895EF92FF920F931F938B
:10026000CF93DF93EC0181E0888F9B8D8C8D981369
:100270001AC0E889F989808185FF15C09FB7F89475
:10028000EE89FF896083E889F989808183708064C1
:1002900080839FBF81E090E0DF91CF911F910F910C
:1002A000FF90EF900895F62E0B8D10E00F5F1F4F1B
:1002B0000F731127E02E8C8D8E110CC00FB607FC2A
:1002C000FACFE889F989808185FFF5CFCE010E94B8
:1002D0000A01F1CFEB8DEC0FFD2FF11DE35AFF4F1B
:1002E000F0829FB7F8940B8FEA89FB898081806246
:1002F000CFCFCF93DF93EC01888D8823B9F0AA8903
:10030000BB89E889F9898C9185FD03C0808186FDD0
:100310000DC00FB607FCF7CF8C9185FFF2CF80811F
:1003200085FFEDCFCE010E940A01E9CFDF91CF9189
:100330000895833081F028F4813099F08230A9F05B
:1003400008958730A9F08830C9F08430B1F48091E5
:1003500080008F7D03C0809180008F778093800024
:10036000089584B58F7784BD089584B58F7DFBCFC4
:100370008091B0008F778093B00008958091B00095
:100380008F7DF9CF1F93CF93DF93282F30E0F901B2
:10039000E255FF4F8491F901E656FF4FD491F901E0
:1003A000EA57FF4FC491CC23A9F0162F81110E9468
:1003B0009901EC2FF0E0EE0FFF1FE859FF4FA591D8
:1003C000B4918FB7F894EC91111108C0D095DE2349
:1003D000DC938FBFDF91CF911F910895DE2BF8CF73
:1003E0003FB7F89480919D0190919E01A0919F014B
:1003F000B091A00126B5A89B05C02F3F19F001962A
:10040000A11DB11D3FBFBA2FA92F982F8827BC016E
:10041000CD01620F711D811D911D42E0660F771F96
:10042000881F991F4A95D1F70895CF92DF92EF92D6
:10043000FF92CF93DF93EC01603282E07807CCF536
:10044000653B710514F064EB70E0898128E830E0C9
:10045000281B310987FD3395220F331F220F331FCD
:100460006901330FEE08FF088A8128E532E0281B76
:10047000310987FD3395220F331F220F331F032EBF
:10048000000C440B550B2C193D094E095F09DB018B
:1004900077FF02C0B0E0A0E00E94AF0624EB30E09E
:1004A00040E050E00E948506C20ED31EE41EF51EF9
:1004B000B601E881EC3070F5298188E890E0821B74
:1004C000910927FD9395880F991F880F991F681729
:1004D00079077CF02A8188E592E0821B910927FD4B
:1004E0009395880F991F880F991F681779070CF447
:1004F000CB010297880F991F4FB7F8942E2F30E049
:10050000F901EE0FFF1FE20FF31FEC58FE4F92832D
:1005100081834FBFDF91CF91FF90EF90DF90CF901D
:100520000895CF93DF93DC018C918C3008F06DC07F
:10053000CB01FB01E656FF4F24918A579F4FFC01E8
:100540008491882399F090E0880F991FFC01EE5860
:10055000FF4FC591D491FC01E859FF4F85919491CB
:100560008FB7F894E881E22BE8838FBF8C91282F16
:1005700030E0F901EE0FFF1FE20FF31FEC58FE4FC2
:10058000962F9F736081607C692B608311961C920B
:10059000119712961C9212972CE0622F0E94E80687
:1005A000829FB001112430E020E0AB01420F531FC5
:1005B000FA01EE0FFF1FE40FF51FEC58FE4F90817C
:1005C00096FD16C02F5F3F4F2C30310571F781111A
:1005D0000FC01092800082E080938100109285000D
:1005E00010928400B19A80916F00826080936F00B6
:1005F000EC918E2F90E0FC01EE0FFF1FE80FF91F2A
:10060000EC58FE4F8081806480838C91DF91CF9184
:1006100008951F920F920FB60F9211242F933F93BC
:100620004F935F936F937F938F939F93AF93BF93FA
:10063000EF93FF9381EA91E00E940A01FF91EF910D
:10064000BF91AF919F918F917F916F915F914F91EA
:100650003F912F910F900FBE0F901F9018951F92F2
:100660000F920FB60F9211242F938F939F93EF93B6
:10067000FF93E091B101F091B2018081E091B70167
:10068000F091B80182FD1BC090818091BA018F5F0B
:100690008F732091BB01821741F0E091BA01F0E025
:1006A000EF55FE4F958F8093BA01FF91EF919F9187
:1006B0008F912F910F900FBE0F901F9018958081F2
:1006C000F4CF1F920F920FB60F9211242F933F93E6
:1006D0008F939F93AF93BF938091990190919A01CB
:1006E000A0919B01B0919C013091980123E0230FD0
:1006F0002D3758F50196A11DB11D209398018093C7
:10070000990190939A01A0939B01B0939C018091D1
:100710009D0190919E01A0919F01B091A001019631
:10072000A11DB11D80939D0190939E01A0939F01F7
:10073000B093A001BF91AF919F918F913F912F9165
:100740000F900FBE0F901F90189526E8230F02966A
:10075000A11DB11DD2CF1F920F920FB60F9211247F
:100760002F933F934F935F936F937F938F939F93B9
:10077000AF93BF93CF93DF93EF93FF938091720179
:10078000C0917301D0E087FF24C0109285001092C1
:100790008400809172018F5F809372018091720159
:1007A000082E000C990B8C179D0724F48091720180
:1007B0008C30C4F18091840090918500049680343F
:1007C0009C4908F47AC08091840090918500049639
:1007D00076C080917201082E000C990B8C179D0732
:1007E000C4F6E09172018E2FEE0F990BFC01EE0F13
:1007F000FF1FE80FF91FEC58FE4F808186FFC9CF1D
:10080000E09172018E2FEE0F990BFC01EE0FFF1F8E
:10081000E80FF91FEC58FE4F808160E08F730E9453
:10082000C201B7CF2091840030918500E091720120
:100830008E2FEE0F990BFC01EE0FFF1FE80FF91F33
:10084000EC58FE4F81819281820F931F9093890013
:1008500080938800E09172018E2FEE0F990BFC01BE
:10086000EE0FFF1FE80FF91FEC58FE4F808186FF47
:1008700011C0E09172018E2FEE0F990BFC01EE0F6B
:10088000FF1FE80FF91FEC58FE4F808161E08F7366
:100890000E94C201FF91EF91DF91CF91BF91AF9183
:1008A0009F918F917F916F915F914F913F912F9188
:1008B0000F900FBE0F901F90189580E49CE99093C5
:1008C0008900809388008FEF80937201E3CFFC0151
:1008D000909173019C3098F481E0890F80937301AB
:1008E0009083892F90E0FC01EE0FFF1FE80FF91FA6
:1008F000EC58FE4F88EB9BE09283818308958FEF45
:1009000080830895E1EAF1E01382128288EE93E099
:10091000A0E0B0E084839583A683B78384E691E06A
:100920009183808385EC90E09587848784EC90E0C8
:100930009787868780EC90E0918B808B81EC90E0AC
:10094000938B828B82EC90E0958B848B86EC90E08D
:10095000978B868B118E128E138E148E83E592E008
:100960000E94670480E592E00E9467048DE492E0B3
:100970000E9467048AE492E00E94670487E492E0A0
:100980000E94670484E492E00E94670481E492E09C
:100990000E9467048EE392E00C946704789484B517
:1009A000826084BD84B5816084BD85B5826085BD6B
:1009B00085B5816085BD80916E00816080936E00F9
:1009C00010928100809181008260809381008091EB
:1009D000810081608093810080918000816080939C
:1009E00080008091B10084608093B1008091B0005C
:1009F00081608093B00080917A00846080937A0057
:100A000080917A00826080937A0080917A00816080
:100A100080937A0080917A00806880937A001092A7
:100A2000C100E091B101F091B20182E08083E091D8
:100A3000AD01F091AE011082E091AF01F091B001F3
:100A40008FEC80831092B901E091B501F091B6016D
:100A500086E08083E091B301F091B40180818061F0
:100A60008083E091B301F091B4018081886080833C
:100A7000E091B301F091B401808180688083E091BE
:100A8000B301F091B40180818F7D8083E4EAF0E0CE
:100A90002491E0E9F0E084918823C1F090E0880F90
:100AA000991FFC01EE58FF4FA591B491FC01E85944
:100AB000FF4FC591D4913FB7F8949C91822F8095B8
:100AC00098239C939881892388833FBF64E070E0DA
:100AD00083E592E00E94910265E070E080E592E09B
:100AE0000E94910263E070E08DE492E00E94910226
:100AF00062E070E08AE492E00E94910267E070E0B8
:100B000087E492E00E94910266E070E084E492E063
:100B10000E94910268E070E081E492E00E949102FC
:100B200069E070E08EE392E00E94910267E870E075
:100B300083E592E00E94150270E060E080E592E0BB
:100B40000E94150267E870E08DE492E00E941502B1
:100B50006AE570E08AE492E00E9415026DE270E0BE
:100B600087E492E00E9415026AE570E084E492E076
:100B70000E9415026DE270E081E492E00E9415028D
:100B800064EB70E08EE392E00E941502E8EBF0E087
:100B90008491E4EAF0E0D491E0E9F0E0C491CC2360
:100BA00009F489C081110E949901EC2FF0E0EE0F49
:100BB000FF1FE458FF4FA591B4918C91D82309F4FD
:100BC0007AC0C8E4D1E000E311E098E1E92E91E0B9
:100BD000F92E20E0C22E21E0D22E36E0232E312C39
:100BE0006991799183E592E00E941502F801619183
:100BF00071918F0180E592E00E941502F7016191E9
:100C000071917F0181E492E00E941502F6016191E9
:100C100071916F018EE392E00E941502FCE02F16A5
:100C2000310408F055C0F701628573858DE492E0C8
:100C30000E941502F601628573858AE492E00E94A3
:100C400015026A857B8587E492E00E941502F8010F
:100C50006285738584E492E00E9415020E94F0018F
:100C60002B013C0184EF882E99249394A12CB12C64
:100C70000E94F0016419750986099709683E73405E
:100C800081059105A8F3F1E08F1A9108A108B10838
:100C900028EE420E23E0521E611C711C8114910447
:100CA000A104B10429F7FFEF2F1A3F0A22E122160F
:100CB000310409F095CF80E090E0892B09F466CFEC
:100CC0000E94F600882309F461CF0E9400005ECFE5
:100CD000F7013E97608171818DE492E00E941502D8
:100CE000F6013E97608171818AE492E00E941502CC
:100CF000FE013E976081718187E492E00E941502B7
:100D0000F8013E9760817181A5CF052E97FB1EF4F7
:100D100000940E949C0657FD07D00E94B70607FC6E
:100D200003D04EF40C949C06509540953095219537
:100D30003F4F4F4F5F4F0895909580957095619507
:100D40007F4F8F4F9F4F08950E94D906A59F900D0A
:100D5000B49F900DA49F800D911D11240895B7FF9D
:100D60000C94A4060E94A406821B930B0895A1E292
:100D70001A2EAA1BBB1BFD010DC0AA1FBB1FEE1F15
:100D8000FF1FA217B307E407F50720F0A21BB30B60
:100D9000E40BF50B661F771F881F991F1A9469F7DC
:100DA00060957095809590959B01AC01BD01CF0138
:100DB0000895A29FB001B39FC001A39F700D811D34
:100DC0001124911DB29F700D811D1124911D089554
:100DD000991B79E004C0991F961708F0961B881F8D
:100DE0007A95C9F780950895EE0FFF1F0590F4914D
:100DF000E02D0994F894FFCFB400A5009600870079
:100E0000780069005A006900780087009600A50004
:100E10002D003C004B005A006900780087007800E4
:100E200069005A004B003C0000000F001E002D001E
:100E30003C004B005A004B003C002D001E000F00F0
:100E40008700780069005A004B003C002D003C00F0
:100E50004B005A0069007800000000002C018C0053
:0A0E6000B9007901EA00C800DC00C7
:107E0000112484B714BE81FFF0D085E080938100F7
:107E100082E08093C00088E18093C10086E0809377
:107E2000C20080E18093C4008EE0C9D0259A86E02C
:107E300020E33CEF91E0309385002093840096BBD3
:107E4000B09BFECF1D9AA8958150A9F7CC24DD24C4
:107E500088248394B5E0AB2EA1E19A2EF3E0BF2EE7
:107E6000A2D0813461F49FD0082FAFD0023811F036
:107E7000013811F484E001C083E08DD089C08234E0
:107E800011F484E103C0853419F485E0A6D080C0E4
:107E9000853579F488D0E82EFF2485D0082F10E0AE
:107EA000102F00270E291F29000F111F8ED06801E7
:107EB0006FC0863521F484E090D080E0DECF843638
:107EC00009F040C070D06FD0082F6DD080E0C81688
:107ED00080E7D80618F4F601B7BEE895C0E0D1E017
:107EE00062D089930C17E1F7F0E0CF16F0E7DF06D8
:107EF00018F0F601B7BEE89568D007B600FCFDCFD4
:107F0000A601A0E0B1E02C9130E011968C91119780
:107F100090E0982F8827822B932B1296FA010C0160
:107F200087BEE89511244E5F5F4FF1E0A038BF0790
:107F300051F7F601A7BEE89507B600FCFDCF97BE46
:107F4000E89526C08437B1F42ED02DD0F82E2BD052
:107F50003CD0F601EF2C8F010F5F1F4F84911BD097
:107F6000EA94F801C1F70894C11CD11CFA94CF0C13
:107F7000D11C0EC0853739F428D08EE10CD085E9AC
:107F80000AD08FE07ACF813511F488E018D01DD067
:107F900080E101D065CF982F8091C00085FFFCCF94
:107FA0009093C60008958091C00087FFFCCF809118
:107FB000C00084FD01C0A8958091C6000895E0E648
:107FC000F0E098E1908380830895EDDF803219F02E
:107FD00088E0F5DFFFCF84E1DECF1F93182FE3DFCA
:107FE0001150E9F7F2DF1F91089580E0E8DFEE27F6
:047FF000FF270994CA
:027FFE00040479
:00000001FF
